{
  "_format": "hh-sol-artifact-1",
  "contractName": "BridgeDestination",
  "sourceName": "contracts/BridgeDestination.sol",
  "abi": [
    {
      "inputs": [
        {
          "internalType": "address",
          "name": "_wrappedCBDC",
          "type": "address"
        },
        {
          "internalType": "address",
          "name": "_bridge",
          "type": "address"
        }
      ],
      "stateMutability": "nonpayable",
      "type": "constructor"
    },
    {
      "anonymous": false,
      "inputs": [
        {
          "indexed": true,
          "internalType": "address",
          "name": "oldBridge",
          "type": "address"
        },
        {
          "indexed": true,
          "internalType": "address",
          "name": "newBridge",
          "type": "address"
        }
      ],
      "name": "BridgeUpdated",
      "type": "event"
    },
    {
      "anonymous": false,
      "inputs": [
        {
          "indexed": true,
          "internalType": "address",
          "name": "user",
          "type": "address"
        },
        {
          "indexed": false,
          "internalType": "uint256",
          "name": "amount",
          "type": "uint256"
        },
        {
          "indexed": false,
          "internalType": "uint256",
          "name": "nonce",
          "type": "uint256"
        }
      ],
      "name": "BurnConfirmed",
      "type": "event"
    },
    {
      "anonymous": false,
      "inputs": [
        {
          "indexed": true,
          "internalType": "address",
          "name": "user",
          "type": "address"
        },
        {
          "indexed": false,
          "internalType": "uint256",
          "name": "amount",
          "type": "uint256"
        },
        {
          "indexed": false,
          "internalType": "address",
          "name": "destinationAddress",
          "type": "address"
        },
        {
          "indexed": false,
          "internalType": "uint256",
          "name": "nonce",
          "type": "uint256"
        },
        {
          "indexed": false,
          "internalType": "uint256",
          "name": "timestamp",
          "type": "uint256"
        }
      ],
      "name": "Burned",
      "type": "event"
    },
    {
      "anonymous": false,
      "inputs": [
        {
          "indexed": true,
          "internalType": "address",
          "name": "previousOwner",
          "type": "address"
        },
        {
          "indexed": true,
          "internalType": "address",
          "name": "newOwner",
          "type": "address"
        }
      ],
      "name": "OwnershipTransferred",
      "type": "event"
    },
    {
      "anonymous": false,
      "inputs": [
        {
          "indexed": false,
          "internalType": "address",
          "name": "account",
          "type": "address"
        }
      ],
      "name": "Paused",
      "type": "event"
    },
    {
      "anonymous": false,
      "inputs": [
        {
          "indexed": true,
          "internalType": "address",
          "name": "user",
          "type": "address"
        },
        {
          "indexed": false,
          "internalType": "uint256",
          "name": "amount",
          "type": "uint256"
        },
        {
          "indexed": false,
          "internalType": "uint256",
          "name": "nonce",
          "type": "uint256"
        }
      ],
      "name": "Refunded",
      "type": "event"
    },
    {
      "anonymous": false,
      "inputs": [
        {
          "indexed": false,
          "internalType": "address",
          "name": "account",
          "type": "address"
        }
      ],
      "name": "Unpaused",
      "type": "event"
    },
    {
      "inputs": [],
      "name": "REFUND_TIMEOUT",
      "outputs": [
        {
          "internalType": "uint256",
          "name": "",
          "type": "uint256"
        }
      ],
      "stateMutability": "view",
      "type": "function"
    },
    {
      "inputs": [],
      "name": "bridge",
      "outputs": [
        {
          "internalType": "address",
          "name": "",
          "type": "address"
        }
      ],
      "stateMutability": "view",
      "type": "function"
    },
    {
      "inputs": [
        {
          "internalType": "address",
          "name": "",
          "type": "address"
        }
      ],
      "name": "burnNonce",
      "outputs": [
        {
          "internalType": "uint256",
          "name": "",
          "type": "uint256"
        }
      ],
      "stateMutability": "view",
      "type": "function"
    },
    {
      "inputs": [
        {
          "internalType": "address",
          "name": "",
          "type": "address"
        },
        {
          "internalType": "uint256",
          "name": "",
          "type": "uint256"
        }
      ],
      "name": "burnTimestamps",
      "outputs": [
        {
          "internalType": "uint256",
          "name": "",
          "type": "uint256"
        }
      ],
      "stateMutability": "view",
      "type": "function"
    },
    {
      "inputs": [
        {
          "internalType": "address",
          "name": "user",
          "type": "address"
        },
        {
          "internalType": "uint256",
          "name": "amount",
          "type": "uint256"
        },
        {
          "internalType": "uint256",
          "name": "nonce",
          "type": "uint256"
        }
      ],
      "name": "confirmBurn",
      "outputs": [],
      "stateMutability": "nonpayable",
      "type": "function"
    },
    {
      "inputs": [
        {
          "internalType": "address",
          "name": "user",
          "type": "address"
        },
        {
          "internalType": "uint256",
          "name": "nonce",
          "type": "uint256"
        }
      ],
      "name": "getBurnTimestamp",
      "outputs": [
        {
          "internalType": "uint256",
          "name": "",
          "type": "uint256"
        }
      ],
      "stateMutability": "view",
      "type": "function"
    },
    {
      "inputs": [
        {
          "internalType": "address",
          "name": "to",
          "type": "address"
        },
        {
          "internalType": "uint256",
          "name": "amount",
          "type": "uint256"
        }
      ],
      "name": "mint",
      "outputs": [],
      "stateMutability": "nonpayable",
      "type": "function"
    },
    {
      "inputs": [],
      "name": "owner",
      "outputs": [
        {
          "internalType": "address",
          "name": "",
          "type": "address"
        }
      ],
      "stateMutability": "view",
      "type": "function"
    },
    {
      "inputs": [],
      "name": "pause",
      "outputs": [],
      "stateMutability": "nonpayable",
      "type": "function"
    },
    {
      "inputs": [],
      "name": "paused",
      "outputs": [
        {
          "internalType": "bool",
          "name": "",
          "type": "bool"
        }
      ],
      "stateMutability": "view",
      "type": "function"
    },
    {
      "inputs": [
        {
          "internalType": "address",
          "name": "user",
          "type": "address"
        },
        {
          "internalType": "uint256",
          "name": "nonce",
          "type": "uint256"
        }
      ],
      "name": "refund",
      "outputs": [],
      "stateMutability": "nonpayable",
      "type": "function"
    },
    {
      "inputs": [],
      "name": "renounceOwnership",
      "outputs": [],
      "stateMutability": "nonpayable",
      "type": "function"
    },
    {
      "inputs": [
        {
          "internalType": "address",
          "name": "newBridge",
          "type": "address"
        }
      ],
      "name": "setBridge",
      "outputs": [],
      "stateMutability": "nonpayable",
      "type": "function"
    },
    {
      "inputs": [
        {
          "internalType": "uint256",
          "name": "amount",
          "type": "uint256"
        },
        {
          "internalType": "address",
          "name": "destinationAddress",
          "type": "address"
        }
      ],
      "name": "stageBurn",
      "outputs": [],
      "stateMutability": "nonpayable",
      "type": "function"
    },
    {
      "inputs": [
        {
          "internalType": "address",
          "name": "",
          "type": "address"
        },
        {
          "internalType": "uint256",
          "name": "",
          "type": "uint256"
        }
      ],
      "name": "stagedBurns",
      "outputs": [
        {
          "internalType": "uint256",
          "name": "",
          "type": "uint256"
        }
      ],
      "stateMutability": "view",
      "type": "function"
    },
    {
      "inputs": [
        {
          "internalType": "address",
          "name": "newOwner",
          "type": "address"
        }
      ],
      "name": "transferOwnership",
      "outputs": [],
      "stateMutability": "nonpayable",
      "type": "function"
    },
    {
      "inputs": [],
      "name": "unpause",
      "outputs": [],
      "stateMutability": "nonpayable",
      "type": "function"
    },
    {
      "inputs": [],
      "name": "wrappedCBDC",
      "outputs": [
        {
          "internalType": "contract IERC20",
          "name": "",
          "type": "address"
        }
      ],
      "stateMutability": "view",
      "type": "function"
    }
  ],
  "bytecode": "0x60806040523480156200001157600080fd5b506040516200266b3803806200266b833981810160405281019062000037919062000231565b620000576200004b620000fb60201b60201c565b6200010360201b60201c565b60008060146101000a81548160ff02191690831515021790555081600160006101000a81548173ffffffffffffffffffffffffffffffffffffffff021916908373ffffffffffffffffffffffffffffffffffffffff16021790555080600260006101000a81548173ffffffffffffffffffffffffffffffffffffffff021916908373ffffffffffffffffffffffffffffffffffffffff160217905550505062000278565b600033905090565b60008060009054906101000a900473ffffffffffffffffffffffffffffffffffffffff169050816000806101000a81548173ffffffffffffffffffffffffffffffffffffffff021916908373ffffffffffffffffffffffffffffffffffffffff1602179055508173ffffffffffffffffffffffffffffffffffffffff168173ffffffffffffffffffffffffffffffffffffffff167f8be0079c531659141344cd1fd0a4f28419497f9722a3daafe3b4186f6b6457e060405160405180910390a35050565b600080fd5b600073ffffffffffffffffffffffffffffffffffffffff82169050919050565b6000620001f982620001cc565b9050919050565b6200020b81620001ec565b81146200021757600080fd5b50565b6000815190506200022b8162000200565b92915050565b600080604083850312156200024b576200024a620001c7565b5b60006200025b858286016200021a565b92505060206200026e858286016200021a565b9150509250929050565b6123e380620002886000396000f3fe608060405234801561001057600080fd5b50600436106101165760003560e01c80638456cb59116100a2578063a9a22b2a11610071578063a9a22b2a14610293578063e45dcd05146102b1578063e78cea92146102e1578063f2fde38b146102ff578063f89af4141461031b57610116565b80638456cb59146102335780638da5cb5b1461023d5780638dd148021461025b578063a1a88bd41461027757610116565b80635353d53c116100e95780635353d53c1461018d5780635c975abb146101bd578063662dbf08146101db578063715018a61461020b5780637d57900a1461021557610116565b80633f4ba83a1461011b57806340c10f1914610125578063410085df146101415780634ccd99021461015d575b600080fd5b610123610337565b005b61013f600480360381019061013a919061175b565b610349565b005b61015b6004803603810190610156919061175b565b610544565b005b6101776004803603810190610172919061175b565b6108b1565b60405161018491906117aa565b60405180910390f35b6101a760048036038101906101a291906117c5565b6108d6565b6040516101b491906117aa565b60405180910390f35b6101c56108ee565b6040516101d2919061180d565b60405180910390f35b6101f560048036038101906101f0919061175b565b610904565b60405161020291906117aa565b60405180910390f35b610213610929565b005b61021d61093d565b60405161022a91906117aa565b60405180910390f35b61023b610944565b005b610245610956565b6040516102529190611837565b60405180910390f35b610275600480360381019061027091906117c5565b61097f565b005b610291600480360381019061028c9190611852565b610abc565b005b61029b610e92565b6040516102a891906118f1565b60405180910390f35b6102cb60048036038101906102c6919061175b565b610eb8565b6040516102d891906117aa565b60405180910390f35b6102e9610f13565b6040516102f69190611837565b60405180910390f35b610319600480360381019061031491906117c5565b610f39565b005b6103356004803603810190610330919061190c565b610fbc565b005b61033f611420565b61034761149e565b565b600260009054906101000a900473ffffffffffffffffffffffffffffffffffffffff1673ffffffffffffffffffffffffffffffffffffffff163373ffffffffffffffffffffffffffffffffffffffff16146103d9576040517f08c379a00000000000000000000000000000000000000000000000000000000081526004016103d0906119e2565b60405180910390fd5b6103e1611500565b6000600160009054906101000a900473ffffffffffffffffffffffffffffffffffffffff1673ffffffffffffffffffffffffffffffffffffffff16838360405160240161042f929190611a02565b6040516020818303038152906040527f40c10f19000000000000000000000000000000000000000000000000000000007bffffffffffffffffffffffffffffffffffffffffffffffffffffffff19166020820180517bffffffffffffffffffffffffffffffffffffffffffffffffffffffff83818316178352505050506040516104b99190611a9c565b6000604051808303816000865af19150503d80600081146104f6576040519150601f19603f3d011682016040523d82523d6000602084013e6104fb565b606091505b505090508061053f576040517f08c379a000000000000000000000000000000000000000000000000000000000815260040161053690611aff565b60405180910390fd5b505050565b61054c611500565b6000600360008473ffffffffffffffffffffffffffffffffffffffff1673ffffffffffffffffffffffffffffffffffffffff168152602001908152602001600020600083815260200190815260200160002054116105df576040517f08c379a00000000000000000000000000000000000000000000000000000000081526004016105d690611b6b565b60405180910390fd5b62093a80600460008473ffffffffffffffffffffffffffffffffffffffff1673ffffffffffffffffffffffffffffffffffffffff16815260200190815260200160002060008381526020019081526020016000205461063e9190611bba565b421015610680576040517f08c379a000000000000000000000000000000000000000000000000000000000815260040161067790611c3a565b60405180910390fd5b6000600360008473ffffffffffffffffffffffffffffffffffffffff1673ffffffffffffffffffffffffffffffffffffffff1681526020019081526020016000206000838152602001908152602001600020549050600360008473ffffffffffffffffffffffffffffffffffffffff1673ffffffffffffffffffffffffffffffffffffffff168152602001908152602001600020600083815260200190815260200160002060009055600460008473ffffffffffffffffffffffffffffffffffffffff1673ffffffffffffffffffffffffffffffffffffffff168152602001908152602001600020600083815260200190815260200160002060009055600160009054906101000a900473ffffffffffffffffffffffffffffffffffffffff1673ffffffffffffffffffffffffffffffffffffffff1663a9059cbb84836040518363ffffffff1660e01b81526004016107da929190611a02565b6020604051808303816000875af11580156107f9573d6000803e3d6000fd5b505050506040513d601f19601f8201168201806040525081019061081d9190611c86565b61085c576040517f08c379a000000000000000000000000000000000000000000000000000000000815260040161085390611cff565b60405180910390fd5b8273ffffffffffffffffffffffffffffffffffffffff167f2dc8e290002f06fc0085bbca9dfb8b415cf4d1178950c72ff9ee8f4d8878ee6682846040516108a4929190611d1f565b60405180910390a2505050565b6004602052816000526040600020602052806000526040600020600091509150505481565b60056020528060005260406000206000915090505481565b60008060149054906101000a900460ff16905090565b6003602052816000526040600020602052806000526040600020600091509150505481565b610931611420565b61093b600061154a565b565b62093a8081565b61094c611420565b61095461160e565b565b60008060009054906101000a900473ffffffffffffffffffffffffffffffffffffffff16905090565b610987611420565b600073ffffffffffffffffffffffffffffffffffffffff168173ffffffffffffffffffffffffffffffffffffffff16036109f6576040517f08c379a00000000000000000000000000000000000000000000000000000000081526004016109ed90611d94565b60405180910390fd5b6000600260009054906101000a900473ffffffffffffffffffffffffffffffffffffffff16905081600260006101000a81548173ffffffffffffffffffffffffffffffffffffffff021916908373ffffffffffffffffffffffffffffffffffffffff1602179055508173ffffffffffffffffffffffffffffffffffffffff168173ffffffffffffffffffffffffffffffffffffffff167faae9beddccf584528e87b66c6ff2563825c8a1433305b8a656e9b5f9bf39049960405160405180910390a35050565b610ac4611500565b60008211610b07576040517f08c379a0000000000000000000000000000000000000000000000000000000008152600401610afe90611e00565b60405180910390fd5b600073ffffffffffffffffffffffffffffffffffffffff168173ffffffffffffffffffffffffffffffffffffffff1603610b76576040517f08c379a0000000000000000000000000000000000000000000000000000000008152600401610b6d90611e6c565b60405180910390fd5b81600160009054906101000a900473ffffffffffffffffffffffffffffffffffffffff1673ffffffffffffffffffffffffffffffffffffffff1663dd62ed3e33306040518363ffffffff1660e01b8152600401610bd4929190611e8c565b602060405180830381865afa158015610bf1573d6000803e3d6000fd5b505050506040513d601f19601f82011682018060405250810190610c159190611eca565b1015610c56576040517f08c379a0000000000000000000000000000000000000000000000000000000008152600401610c4d90611f43565b60405180910390fd5b6000600560003373ffffffffffffffffffffffffffffffffffffffff1673ffffffffffffffffffffffffffffffffffffffff1681526020019081526020016000206000815480929190610ca890611f63565b91905055905082600360003373ffffffffffffffffffffffffffffffffffffffff1673ffffffffffffffffffffffffffffffffffffffff16815260200190815260200160002060008381526020019081526020016000208190555042600460003373ffffffffffffffffffffffffffffffffffffffff1673ffffffffffffffffffffffffffffffffffffffff168152602001908152602001600020600083815260200190815260200160002081905550600160009054906101000a900473ffffffffffffffffffffffffffffffffffffffff1673ffffffffffffffffffffffffffffffffffffffff166323b872dd3330866040518463ffffffff1660e01b8152600401610db793929190611fab565b6020604051808303816000875af1158015610dd6573d6000803e3d6000fd5b505050506040513d601f19601f82011682018060405250810190610dfa9190611c86565b610e39576040517f08c379a0000000000000000000000000000000000000000000000000000000008152600401610e309061202e565b60405180910390fd5b3373ffffffffffffffffffffffffffffffffffffffff167f457a7615b6961863e793388b61f13a105e7f6d04def168f257d96e60f2679f9484848442604051610e85949392919061204e565b60405180910390a2505050565b600160009054906101000a900473ffffffffffffffffffffffffffffffffffffffff1681565b6000600460008473ffffffffffffffffffffffffffffffffffffffff1673ffffffffffffffffffffffffffffffffffffffff168152602001908152602001600020600083815260200190815260200160002054905092915050565b600260009054906101000a900473ffffffffffffffffffffffffffffffffffffffff1681565b610f41611420565b600073ffffffffffffffffffffffffffffffffffffffff168173ffffffffffffffffffffffffffffffffffffffff1603610fb0576040517f08c379a0000000000000000000000000000000000000000000000000000000008152600401610fa790612105565b60405180910390fd5b610fb98161154a565b50565b600260009054906101000a900473ffffffffffffffffffffffffffffffffffffffff1673ffffffffffffffffffffffffffffffffffffffff163373ffffffffffffffffffffffffffffffffffffffff161461104c576040517f08c379a0000000000000000000000000000000000000000000000000000000008152600401611043906119e2565b60405180910390fd5b611054611500565b81600360008573ffffffffffffffffffffffffffffffffffffffff1673ffffffffffffffffffffffffffffffffffffffff168152602001908152602001600020600083815260200190815260200160002054146110e6576040517f08c379a00000000000000000000000000000000000000000000000000000000081526004016110dd90612171565b60405180910390fd5b81600160009054906101000a900473ffffffffffffffffffffffffffffffffffffffff1673ffffffffffffffffffffffffffffffffffffffff166370a08231306040518263ffffffff1660e01b81526004016111429190611837565b602060405180830381865afa15801561115f573d6000803e3d6000fd5b505050506040513d601f19601f820116820180604052508101906111839190611eca565b10156111c4576040517f08c379a00000000000000000000000000000000000000000000000000000000081526004016111bb906121dd565b60405180910390fd5b600360008473ffffffffffffffffffffffffffffffffffffffff1673ffffffffffffffffffffffffffffffffffffffff168152602001908152602001600020600082815260200190815260200160002060009055600460008473ffffffffffffffffffffffffffffffffffffffff1673ffffffffffffffffffffffffffffffffffffffff1681526020019081526020016000206000828152602001908152602001600020600090556000600160009054906101000a900473ffffffffffffffffffffffffffffffffffffffff1673ffffffffffffffffffffffffffffffffffffffff1630846040516024016112ba929190611a02565b6040516020818303038152906040527f9dc29fac000000000000000000000000000000000000000000000000000000007bffffffffffffffffffffffffffffffffffffffffffffffffffffffff19166020820180517bffffffffffffffffffffffffffffffffffffffffffffffffffffffff83818316178352505050506040516113449190611a9c565b6000604051808303816000865af19150503d8060008114611381576040519150601f19603f3d011682016040523d82523d6000602084013e611386565b606091505b50509050806113ca576040517f08c379a00000000000000000000000000000000000000000000000000000000081526004016113c190612249565b60405180910390fd5b8373ffffffffffffffffffffffffffffffffffffffff167f5e63bd61adb3439256d1a36f8adfbaabdd2b96a7ff248037b23d97c21f9077a88484604051611412929190611d1f565b60405180910390a250505050565b611428611671565b73ffffffffffffffffffffffffffffffffffffffff16611446610956565b73ffffffffffffffffffffffffffffffffffffffff161461149c576040517f08c379a0000000000000000000000000000000000000000000000000000000008152600401611493906122b5565b60405180910390fd5b565b6114a6611679565b60008060146101000a81548160ff0219169083151502179055507f5db9ee0a495bf2e6ff9c91a7834c1ba4fdd244a5e8aa4e537bd38aeae4b073aa6114e9611671565b6040516114f69190611837565b60405180910390a1565b6115086108ee565b15611548576040517f08c379a000000000000000000000000000000000000000000000000000000000815260040161153f90612321565b60405180910390fd5b565b60008060009054906101000a900473ffffffffffffffffffffffffffffffffffffffff169050816000806101000a81548173ffffffffffffffffffffffffffffffffffffffff021916908373ffffffffffffffffffffffffffffffffffffffff1602179055508173ffffffffffffffffffffffffffffffffffffffff168173ffffffffffffffffffffffffffffffffffffffff167f8be0079c531659141344cd1fd0a4f28419497f9722a3daafe3b4186f6b6457e060405160405180910390a35050565b611616611500565b6001600060146101000a81548160ff0219169083151502179055507f62e78cea01bee320cd4e420270b5ea74000d11b0c9f74754ebdbfc544b05a25861165a611671565b6040516116679190611837565b60405180910390a1565b600033905090565b6116816108ee565b6116c0576040517f08c379a00000000000000000000000000000000000000000000000000000000081526004016116b79061238d565b60405180910390fd5b565b600080fd5b600073ffffffffffffffffffffffffffffffffffffffff82169050919050565b60006116f2826116c7565b9050919050565b611702816116e7565b811461170d57600080fd5b50565b60008135905061171f816116f9565b92915050565b6000819050919050565b61173881611725565b811461174357600080fd5b50565b6000813590506117558161172f565b92915050565b60008060408385031215611772576117716116c2565b5b600061178085828601611710565b925050602061179185828601611746565b9150509250929050565b6117a481611725565b82525050565b60006020820190506117bf600083018461179b565b92915050565b6000602082840312156117db576117da6116c2565b5b60006117e984828501611710565b91505092915050565b60008115159050919050565b611807816117f2565b82525050565b600060208201905061182260008301846117fe565b92915050565b611831816116e7565b82525050565b600060208201905061184c6000830184611828565b92915050565b60008060408385031215611869576118686116c2565b5b600061187785828601611746565b925050602061188885828601611710565b9150509250929050565b6000819050919050565b60006118b76118b26118ad846116c7565b611892565b6116c7565b9050919050565b60006118c98261189c565b9050919050565b60006118db826118be565b9050919050565b6118eb816118d0565b82525050565b600060208201905061190660008301846118e2565b92915050565b600080600060608486031215611925576119246116c2565b5b600061193386828701611710565b935050602061194486828701611746565b925050604061195586828701611746565b9150509250925092565b600082825260208201905092915050565b7f4f6e6c79206272696467652063616e2063616c6c20746869732066756e63746960008201527f6f6e000000000000000000000000000000000000000000000000000000000000602082015250565b60006119cc60228361195f565b91506119d782611970565b604082019050919050565b600060208201905081810360008301526119fb816119bf565b9050919050565b6000604082019050611a176000830185611828565b611a24602083018461179b565b9392505050565b600081519050919050565b600081905092915050565b60005b83811015611a5f578082015181840152602081019050611a44565b60008484015250505050565b6000611a7682611a2b565b611a808185611a36565b9350611a90818560208601611a41565b80840191505092915050565b6000611aa88284611a6b565b915081905092915050565b7f4d696e74206661696c6564000000000000000000000000000000000000000000600082015250565b6000611ae9600b8361195f565b9150611af482611ab3565b602082019050919050565b60006020820190508181036000830152611b1881611adc565b9050919050565b7f4e6f20737461676564206275726e20666f756e64000000000000000000000000600082015250565b6000611b5560148361195f565b9150611b6082611b1f565b602082019050919050565b60006020820190508181036000830152611b8481611b48565b9050919050565b7f4e487b7100000000000000000000000000000000000000000000000000000000600052601160045260246000fd5b6000611bc582611725565b9150611bd083611725565b9250828201905080821115611be857611be7611b8b565b5b92915050565b7f526566756e642074696d656f7574206e6f742072656163686564000000000000600082015250565b6000611c24601a8361195f565b9150611c2f82611bee565b602082019050919050565b60006020820190508181036000830152611c5381611c17565b9050919050565b611c63816117f2565b8114611c6e57600080fd5b50565b600081519050611c8081611c5a565b92915050565b600060208284031215611c9c57611c9b6116c2565b5b6000611caa84828501611c71565b91505092915050565b7f526566756e64207472616e73666572206661696c656400000000000000000000600082015250565b6000611ce960168361195f565b9150611cf482611cb3565b602082019050919050565b60006020820190508181036000830152611d1881611cdc565b9050919050565b6000604082019050611d34600083018561179b565b611d41602083018461179b565b9392505050565b7f496e76616c696420627269646765206164647265737300000000000000000000600082015250565b6000611d7e60168361195f565b9150611d8982611d48565b602082019050919050565b60006020820190508181036000830152611dad81611d71565b9050919050565b7f416d6f756e74206d7573742062652067726561746572207468616e2030000000600082015250565b6000611dea601d8361195f565b9150611df582611db4565b602082019050919050565b60006020820190508181036000830152611e1981611ddd565b9050919050565b7f496e76616c69642064657374696e6174696f6e20616464726573730000000000600082015250565b6000611e56601b8361195f565b9150611e6182611e20565b602082019050919050565b60006020820190508181036000830152611e8581611e49565b9050919050565b6000604082019050611ea16000830185611828565b611eae6020830184611828565b9392505050565b600081519050611ec48161172f565b92915050565b600060208284031215611ee057611edf6116c2565b5b6000611eee84828501611eb5565b91505092915050565b7f496e73756666696369656e7420616c6c6f77616e636500000000000000000000600082015250565b6000611f2d60168361195f565b9150611f3882611ef7565b602082019050919050565b60006020820190508181036000830152611f5c81611f20565b9050919050565b6000611f6e82611725565b91507fffffffffffffffffffffffffffffffffffffffffffffffffffffffffffffffff8203611fa057611f9f611b8b565b5b600182019050919050565b6000606082019050611fc06000830186611828565b611fcd6020830185611828565b611fda604083018461179b565b949350505050565b7f5472616e73666572206661696c65640000000000000000000000000000000000600082015250565b6000612018600f8361195f565b915061202382611fe2565b602082019050919050565b600060208201905081810360008301526120478161200b565b9050919050565b6000608082019050612063600083018761179b565b6120706020830186611828565b61207d604083018561179b565b61208a606083018461179b565b95945050505050565b7f4f776e61626c653a206e6577206f776e657220697320746865207a65726f206160008201527f6464726573730000000000000000000000000000000000000000000000000000602082015250565b60006120ef60268361195f565b91506120fa82612093565b604082019050919050565b6000602082019050818103600083015261211e816120e2565b9050919050565b7f496e76616c6964206275726e20616d6f756e74206f72206e6f6e636500000000600082015250565b600061215b601c8361195f565b915061216682612125565b602082019050919050565b6000602082019050818103600083015261218a8161214e565b9050919050565b7f496e73756666696369656e7420636f6e74726163742062616c616e6365000000600082015250565b60006121c7601d8361195f565b91506121d282612191565b602082019050919050565b600060208201905081810360008301526121f6816121ba565b9050919050565b7f4275726e206661696c6564000000000000000000000000000000000000000000600082015250565b6000612233600b8361195f565b915061223e826121fd565b602082019050919050565b6000602082019050818103600083015261226281612226565b9050919050565b7f4f776e61626c653a2063616c6c6572206973206e6f7420746865206f776e6572600082015250565b600061229f60208361195f565b91506122aa82612269565b602082019050919050565b600060208201905081810360008301526122ce81612292565b9050919050565b7f5061757361626c653a2070617573656400000000000000000000000000000000600082015250565b600061230b60108361195f565b9150612316826122d5565b602082019050919050565b6000602082019050818103600083015261233a816122fe565b9050919050565b7f5061757361626c653a206e6f7420706175736564000000000000000000000000600082015250565b600061237760148361195f565b915061238282612341565b602082019050919050565b600060208201905081810360008301526123a68161236a565b905091905056fea2646970667358221220d897b6e83e8ec4e03ff21beefa8c6e328c3a4b35da73bbbcbff8c468eb818e4f64736f6c63430008140033",
  "linkReferences": {},
  "deployedLinkReferences": {}
}