{
  "_format": "hh-sol-artifact-1",
  "contractName": "BridgeSource",
  "sourceName": "contracts/BridgeSource.sol",
  "abi": [
    {
      "inputs": [
        {
          "internalType": "address",
          "name": "_cbdc",
          "type": "address"
        }
      ],
      "stateMutability": "nonpayable",
      "type": "constructor"
    },
    {
      "anonymous": false,
      "inputs": [
        {
          "indexed": true,
          "internalType": "address",
          "name": "oldCBDC",
          "type": "address"
        },
        {
          "indexed": true,
          "internalType": "address",
          "name": "newCBDC",
          "type": "address"
        }
      ],
      "name": "CBDCUpdated",
      "type": "event"
    },
    {
      "anonymous": false,
      "inputs": [
        {
          "indexed": true,
          "internalType": "address",
          "name": "user",
          "type": "address"
        },
        {
          "indexed": false,
          "internalType": "uint256",
          "name": "amount",
          "type": "uint256"
        },
        {
          "indexed": true,
          "internalType": "address",
          "name": "destinationAddress",
          "type": "address"
        }
      ],
      "name": "Locked",
      "type": "event"
    },
    {
      "anonymous": false,
      "inputs": [
        {
          "indexed": true,
          "internalType": "address",
          "name": "user",
          "type": "address"
        },
        {
          "indexed": false,
          "internalType": "uint256",
          "name": "amount",
          "type": "uint256"
        }
      ],
      "name": "Unlocked",
      "type": "event"
    },
    {
      "inputs": [],
      "name": "admin",
      "outputs": [
        {
          "internalType": "address",
          "name": "",
          "type": "address"
        }
      ],
      "stateMutability": "view",
      "type": "function"
    },
    {
      "inputs": [],
      "name": "cbdc",
      "outputs": [
        {
          "internalType": "contract ICBDC",
          "name": "",
          "type": "address"
        }
      ],
      "stateMutability": "view",
      "type": "function"
    },
    {
      "inputs": [
        {
          "internalType": "uint256",
          "name": "amount",
          "type": "uint256"
        },
        {
          "internalType": "address",
          "name": "destinationAddress",
          "type": "address"
        }
      ],
      "name": "lock",
      "outputs": [],
      "stateMutability": "nonpayable",
      "type": "function"
    },
    {
      "inputs": [
        {
          "internalType": "address",
          "name": "newCBDC",
          "type": "address"
        }
      ],
      "name": "setCBDC",
      "outputs": [],
      "stateMutability": "nonpayable",
      "type": "function"
    },
    {
      "inputs": [
        {
          "internalType": "address",
          "name": "user",
          "type": "address"
        },
        {
          "internalType": "uint256",
          "name": "amount",
          "type": "uint256"
        }
      ],
      "name": "unlock",
      "outputs": [],
      "stateMutability": "nonpayable",
      "type": "function"
    }
  ],
  "bytecode": "0x60806040523480156200001157600080fd5b5060405162000de138038062000de183398181016040528101906200003791906200019b565b600073ffffffffffffffffffffffffffffffffffffffff168173ffffffffffffffffffffffffffffffffffffffff1603620000a9576040517f08c379a0000000000000000000000000000000000000000000000000000000008152600401620000a0906200022e565b60405180910390fd5b336000806101000a81548173ffffffffffffffffffffffffffffffffffffffff021916908373ffffffffffffffffffffffffffffffffffffffff16021790555080600160006101000a81548173ffffffffffffffffffffffffffffffffffffffff021916908373ffffffffffffffffffffffffffffffffffffffff1602179055505062000250565b600080fd5b600073ffffffffffffffffffffffffffffffffffffffff82169050919050565b6000620001638262000136565b9050919050565b620001758162000156565b81146200018157600080fd5b50565b60008151905062000195816200016a565b92915050565b600060208284031215620001b457620001b362000131565b5b6000620001c48482850162000184565b91505092915050565b600082825260208201905092915050565b7f496e76616c696420434244432061646472657373000000000000000000000000600082015250565b600062000216601483620001cd565b91506200022382620001de565b602082019050919050565b60006020820190508181036000830152620002498162000207565b9050919050565b610b8180620002606000396000f3fe608060405234801561001057600080fd5b50600436106100575760003560e01c806362ddf7381461005c57806366dfbfb4146100785780637eee288d146100945780639d591c68146100b0578063f851a440146100ce575b600080fd5b610076600480360381019061007191906106a8565b6100ec565b005b610092600480360381019061008d919061070b565b6102af565b005b6100ae60048036038101906100a9919061074b565b61043c565b005b6100b86105fb565b6040516100c591906107ea565b60405180910390f35b6100d6610621565b6040516100e39190610814565b60405180910390f35b60008054906101000a900473ffffffffffffffffffffffffffffffffffffffff1673ffffffffffffffffffffffffffffffffffffffff163373ffffffffffffffffffffffffffffffffffffffff161461017a576040517f08c379a00000000000000000000000000000000000000000000000000000000081526004016101719061088c565b60405180910390fd5b600073ffffffffffffffffffffffffffffffffffffffff168173ffffffffffffffffffffffffffffffffffffffff16036101e9576040517f08c379a00000000000000000000000000000000000000000000000000000000081526004016101e0906108f8565b60405180910390fd5b6000600160009054906101000a900473ffffffffffffffffffffffffffffffffffffffff16905081600160006101000a81548173ffffffffffffffffffffffffffffffffffffffff021916908373ffffffffffffffffffffffffffffffffffffffff1602179055508173ffffffffffffffffffffffffffffffffffffffff168173ffffffffffffffffffffffffffffffffffffffff167f3c4dea7344d7a98ee3dc0b79465fcd00989b36dbe4db43a4ff4bf532f031e52260405160405180910390a35050565b600082116102f2576040517f08c379a00000000000000000000000000000000000000000000000000000000081526004016102e990610964565b60405180910390fd5b600160009054906101000a900473ffffffffffffffffffffffffffffffffffffffff1673ffffffffffffffffffffffffffffffffffffffff166323b872dd3330856040518463ffffffff1660e01b815260040161035193929190610993565b6020604051808303816000875af1158015610370573d6000803e3d6000fd5b505050506040513d601f19601f820116820180604052508101906103949190610a02565b6103d3576040517f08c379a00000000000000000000000000000000000000000000000000000000081526004016103ca90610a7b565b60405180910390fd5b8073ffffffffffffffffffffffffffffffffffffffff163373ffffffffffffffffffffffffffffffffffffffff167f6556f2e938a411129eba507e7d304a1f4b451f10196f319f58567ab10dccf559846040516104309190610a9b565b60405180910390a35050565b60008054906101000a900473ffffffffffffffffffffffffffffffffffffffff1673ffffffffffffffffffffffffffffffffffffffff163373ffffffffffffffffffffffffffffffffffffffff16146104ca576040517f08c379a00000000000000000000000000000000000000000000000000000000081526004016104c190610b02565b60405180910390fd5b600160009054906101000a900473ffffffffffffffffffffffffffffffffffffffff1673ffffffffffffffffffffffffffffffffffffffff1663a9059cbb83836040518363ffffffff1660e01b8152600401610527929190610b22565b6020604051808303816000875af1158015610546573d6000803e3d6000fd5b505050506040513d601f19601f8201168201806040525081019061056a9190610a02565b6105a9576040517f08c379a00000000000000000000000000000000000000000000000000000000081526004016105a090610a7b565b60405180910390fd5b8173ffffffffffffffffffffffffffffffffffffffff167f0f0bc5b519ddefdd8e5f9e6423433aa2b869738de2ae34d58ebc796fc749fa0d826040516105ef9190610a9b565b60405180910390a25050565b600160009054906101000a900473ffffffffffffffffffffffffffffffffffffffff1681565b60008054906101000a900473ffffffffffffffffffffffffffffffffffffffff1681565b600080fd5b600073ffffffffffffffffffffffffffffffffffffffff82169050919050565b60006106758261064a565b9050919050565b6106858161066a565b811461069057600080fd5b50565b6000813590506106a28161067c565b92915050565b6000602082840312156106be576106bd610645565b5b60006106cc84828501610693565b91505092915050565b6000819050919050565b6106e8816106d5565b81146106f357600080fd5b50565b600081359050610705816106df565b92915050565b6000806040838503121561072257610721610645565b5b6000610730858286016106f6565b925050602061074185828601610693565b9150509250929050565b6000806040838503121561076257610761610645565b5b600061077085828601610693565b9250506020610781858286016106f6565b9150509250929050565b6000819050919050565b60006107b06107ab6107a68461064a565b61078b565b61064a565b9050919050565b60006107c282610795565b9050919050565b60006107d4826107b7565b9050919050565b6107e4816107c9565b82525050565b60006020820190506107ff60008301846107db565b92915050565b61080e8161066a565b82525050565b60006020820190506108296000830184610805565b92915050565b600082825260208201905092915050565b7f4f6e6c792061646d696e2063616e207365742043424443000000000000000000600082015250565b600061087660178361082f565b915061088182610840565b602082019050919050565b600060208201905081810360008301526108a581610869565b9050919050565b7f496e76616c696420434244432061646472657373000000000000000000000000600082015250565b60006108e260148361082f565b91506108ed826108ac565b602082019050919050565b60006020820190508181036000830152610911816108d5565b9050919050565b7f416d6f756e74206d757374206265203e20300000000000000000000000000000600082015250565b600061094e60128361082f565b915061095982610918565b602082019050919050565b6000602082019050818103600083015261097d81610941565b9050919050565b61098d816106d5565b82525050565b60006060820190506109a86000830186610805565b6109b56020830185610805565b6109c26040830184610984565b949350505050565b60008115159050919050565b6109df816109ca565b81146109ea57600080fd5b50565b6000815190506109fc816109d6565b92915050565b600060208284031215610a1857610a17610645565b5b6000610a26848285016109ed565b91505092915050565b7f5472616e73666572206661696c65640000000000000000000000000000000000600082015250565b6000610a65600f8361082f565b9150610a7082610a2f565b602082019050919050565b60006020820190508181036000830152610a9481610a58565b9050919050565b6000602082019050610ab06000830184610984565b92915050565b7f4f6e6c792061646d696e2063616e20756e6c6f636b0000000000000000000000600082015250565b6000610aec60158361082f565b9150610af782610ab6565b602082019050919050565b60006020820190508181036000830152610b1b81610adf565b9050919050565b6000604082019050610b376000830185610805565b610b446020830184610984565b939250505056fea2646970667358221220610bc32a19f425e2f812205103d50c9705ea68e4e6ea54ba2b42b4eeab97e27e64736f6c63430008140033",
  "linkReferences": {},
  "deployedLinkReferences": {}
}