{
    "contractName": "ERC20TokenDSGD",
    "abi": [
        {
            "inputs": [
                {
                    "internalType": "string",
                    "name": "name",
                    "type": "string"
                },
                {
                    "internalType": "string",
                    "name": "symbol",
                    "type": "string"
                },
                {
                    "internalType": "uint256",
                    "name": "total_Supply",
                    "type": "uint256"
                }
            ],
            "stateMutability": "nonpayable",
            "type": "constructor"
        },
        {
            "anonymous": false,
            "inputs": [
                {
                    "indexed": true,
                    "internalType": "address",
                    "name": "owner",
                    "type": "address"
                },
                {
                    "indexed": true,
                    "internalType": "address",
                    "name": "spender",
                    "type": "address"
                },
                {
                    "indexed": false,
                    "internalType": "uint256",
                    "name": "value",
                    "type": "uint256"
                }
            ],
            "name": "Approval",
            "type": "event"
        },
        {
            "anonymous": false,
            "inputs": [
                {
                    "indexed": false,
                    "internalType": "address",
                    "name": "sender",
                    "type": "address"
                },
                {
                    "indexed": false,
                    "internalType": "uint256",
                    "name": "_amount",
                    "type": "uint256"
                }
            ],
            "name": "Burn",
            "type": "event"
        },
        {
            "anonymous": false,
            "inputs": [
                {
                    "indexed": false,
                    "internalType": "address",
                    "name": "sender",
                    "type": "address"
                },
                {
                    "indexed": false,
                    "internalType": "address",
                    "name": "account",
                    "type": "address"
                },
                {
                    "indexed": false,
                    "internalType": "uint256",
                    "name": "_amount",
                    "type": "uint256"
                }
            ],
            "name": "BurnFrom",
            "type": "event"
        },
        {
            "anonymous": false,
            "inputs": [
                {
                    "indexed": true,
                    "internalType": "address",
                    "name": "from",
                    "type": "address"
                },
                {
                    "indexed": true,
                    "internalType": "address",
                    "name": "to",
                    "type": "address"
                },
                {
                    "indexed": false,
                    "internalType": "uint256",
                    "name": "value",
                    "type": "uint256"
                }
            ],
            "name": "Transfer",
            "type": "event"
        },
        {
            "anonymous": false,
            "inputs": [
                {
                    "indexed": false,
                    "internalType": "address",
                    "name": "sender",
                    "type": "address"
                },
                {
                    "indexed": false,
                    "internalType": "uint256",
                    "name": "newTotalSupply",
                    "type": "uint256"
                }
            ],
            "name": "Update",
            "type": "event"
        },
        {
            "inputs": [],
            "name": "DECIMALS",
            "outputs": [
                {
                    "internalType": "uint8",
                    "name": "",
                    "type": "uint8"
                }
            ],
            "stateMutability": "view",
            "type": "function"
        },
        {
            "inputs": [],
            "name": "_incirculation",
            "outputs": [
                {
                    "internalType": "uint256",
                    "name": "",
                    "type": "uint256"
                }
            ],
            "stateMutability": "view",
            "type": "function"
        },
        {
            "inputs": [
                {
                    "internalType": "address",
                    "name": "owner",
                    "type": "address"
                },
                {
                    "internalType": "address",
                    "name": "spender",
                    "type": "address"
                }
            ],
            "name": "allowance",
            "outputs": [
                {
                    "internalType": "uint256",
                    "name": "",
                    "type": "uint256"
                }
            ],
            "stateMutability": "view",
            "type": "function"
        },
        {
            "inputs": [
                {
                    "internalType": "address",
                    "name": "spender",
                    "type": "address"
                },
                {
                    "internalType": "uint256",
                    "name": "amount",
                    "type": "uint256"
                }
            ],
            "name": "approve",
            "outputs": [
                {
                    "internalType": "bool",
                    "name": "",
                    "type": "bool"
                }
            ],
            "stateMutability": "nonpayable",
            "type": "function"
        },
        {
            "inputs": [
                {
                    "internalType": "address",
                    "name": "tokenOwner",
                    "type": "address"
                }
            ],
            "name": "balanceOf",
            "outputs": [
                {
                    "internalType": "uint256",
                    "name": "",
                    "type": "uint256"
                }
            ],
            "stateMutability": "view",
            "type": "function"
        },
        {
            "inputs": [
                {
                    "internalType": "uint256",
                    "name": "_amount",
                    "type": "uint256"
                }
            ],
            "name": "burn",
            "outputs": [],
            "stateMutability": "nonpayable",
            "type": "function"
        },
        {
            "inputs": [
                {
                    "internalType": "address",
                    "name": "account",
                    "type": "address"
                },
                {
                    "internalType": "uint256",
                    "name": "_amount",
                    "type": "uint256"
                }
            ],
            "name": "burnFrom",
            "outputs": [],
            "stateMutability": "nonpayable",
            "type": "function"
        },
        {
            "inputs": [],
            "name": "decimals",
            "outputs": [
                {
                    "internalType": "uint8",
                    "name": "",
                    "type": "uint8"
                }
            ],
            "stateMutability": "view",
            "type": "function"
        },
        {
            "inputs": [
                {
                    "internalType": "address",
                    "name": "spender",
                    "type": "address"
                },
                {
                    "internalType": "uint256",
                    "name": "subtractedValue",
                    "type": "uint256"
                }
            ],
            "name": "decreaseAllowance",
            "outputs": [
                {
                    "internalType": "bool",
                    "name": "",
                    "type": "bool"
                }
            ],
            "stateMutability": "nonpayable",
            "type": "function"
        },
        {
            "inputs": [
                {
                    "internalType": "address",
                    "name": "spender",
                    "type": "address"
                },
                {
                    "internalType": "uint256",
                    "name": "addedValue",
                    "type": "uint256"
                }
            ],
            "name": "increaseAllowance",
            "outputs": [
                {
                    "internalType": "bool",
                    "name": "",
                    "type": "bool"
                }
            ],
            "stateMutability": "nonpayable",
            "type": "function"
        },
        {
            "inputs": [
                {
                    "internalType": "address",
                    "name": "_recipient",
                    "type": "address"
                },
                {
                    "internalType": "uint256",
                    "name": "_amount",
                    "type": "uint256"
                }
            ],
            "name": "mint",
            "outputs": [],
            "stateMutability": "nonpayable",
            "type": "function"
        },
        {
            "inputs": [],
            "name": "name",
            "outputs": [
                {
                    "internalType": "string",
                    "name": "",
                    "type": "string"
                }
            ],
            "stateMutability": "view",
            "type": "function"
        },
        {
            "inputs": [],
            "name": "owner",
            "outputs": [
                {
                    "internalType": "address",
                    "name": "",
                    "type": "address"
                }
            ],
            "stateMutability": "view",
            "type": "function"
        },
        {
            "inputs": [],
            "name": "symbol",
            "outputs": [
                {
                    "internalType": "string",
                    "name": "",
                    "type": "string"
                }
            ],
            "stateMutability": "view",
            "type": "function"
        },
        {
            "inputs": [],
            "name": "totalSupply",
            "outputs": [
                {
                    "internalType": "uint256",
                    "name": "",
                    "type": "uint256"
                }
            ],
            "stateMutability": "view",
            "type": "function"
        },
        {
            "inputs": [
                {
                    "internalType": "address",
                    "name": "_recipient",
                    "type": "address"
                },
                {
                    "internalType": "uint256",
                    "name": "_amount",
                    "type": "uint256"
                }
            ],
            "name": "transfer",
            "outputs": [
                {
                    "internalType": "bool",
                    "name": "success",
                    "type": "bool"
                }
            ],
            "stateMutability": "nonpayable",
            "type": "function"
        },
        {
            "inputs": [
                {
                    "internalType": "address",
                    "name": "from",
                    "type": "address"
                },
                {
                    "internalType": "address",
                    "name": "to",
                    "type": "address"
                },
                {
                    "internalType": "uint256",
                    "name": "amount",
                    "type": "uint256"
                }
            ],
            "name": "transferFrom",
            "outputs": [
                {
                    "internalType": "bool",
                    "name": "",
                    "type": "bool"
                }
            ],
            "stateMutability": "nonpayable",
            "type": "function"
        },
        {
            "inputs": [
                {
                    "internalType": "uint256",
                    "name": "newTotalSupply",
                    "type": "uint256"
                }
            ],
            "name": "updateTotalSupply",
            "outputs": [
                {
                    "internalType": "bool",
                    "name": "success",
                    "type": "bool"
                }
            ],
            "stateMutability": "nonpayable",
            "type": "function"
        }
    ],
    "bytecode": "60a060405260006006553480156200001657600080fd5b50604051620015d9380380620015d9833981016040819052620000399162000144565b8282600362000049838262000246565b50600462000058828262000246565b50503360808190526005929092555060009081526007602052604081205550620003129050565b634e487b7160e01b600052604160045260246000fd5b600082601f830112620000a757600080fd5b81516001600160401b0380821115620000c457620000c46200007f565b604051601f8301601f19908116603f01168101908282118183101715620000ef57620000ef6200007f565b816040528381526020925086838588010111156200010c57600080fd5b600091505b8382101562000130578582018301518183018401529082019062000111565b600093810190920192909252949350505050565b6000806000606084860312156200015a57600080fd5b83516001600160401b03808211156200017257600080fd5b620001808783880162000095565b945060208601519150808211156200019757600080fd5b50620001a68682870162000095565b925050604084015190509250925092565b600181811c90821680620001cc57607f821691505b602082108103620001ed57634e487b7160e01b600052602260045260246000fd5b50919050565b601f8211156200024157600081815260208120601f850160051c810160208610156200021c5750805b601f850160051c820191505b818110156200023d5782815560010162000228565b5050505b505050565b81516001600160401b038111156200026257620002626200007f565b6200027a81620002738454620001b7565b84620001f3565b602080601f831160018114620002b25760008415620002995750858301515b600019600386901b1c1916600185901b1785556200023d565b600085815260208120601f198616915b82811015620002e357888601518255948401946001909101908401620002c2565b5085821015620003025787850151600019600388901b60f8161c191681555b5050505050600190811b01905550565b608051611265620003746000396000818161023a015281816103b2015281816105340152818161057b015281816105b5015281816105fb0152818161064601528181610692015281816106e30152818161075c015261089901526112656000f3fe608060405234801561001057600080fd5b50600436106101165760003560e01c806366d49bab116100a25780638da5cb5b116100715780638da5cb5b1461023557806395d89b4114610274578063a457c2d71461027c578063a9059cbb1461028f578063dd62ed3e146102a257600080fd5b806366d49bab146101dd5780636dd66857146101f057806370a08231146101f957806379cc67901461022257600080fd5b80632e0f2625116100e95780632e0f262514610181578063313ce5671461019b57806339509351146101a257806340c10f19146101b557806342966c68146101ca57600080fd5b806306fdde031461011b578063095ea7b31461013957806318160ddd1461015c57806323b872dd1461016e575b600080fd5b6101236102b5565b604051610130919061103d565b60405180910390f35b61014c6101473660046110a2565b610347565b6040519015158152602001610130565b6005545b604051908152602001610130565b61014c61017c3660046110cc565b610361565b610189601281565b60405160ff9091168152602001610130565b6012610189565b61014c6101b03660046110a2565b610385565b6101c86101c33660046110a2565b6103a7565b005b6101c86101d8366004611108565b610529565b61014c6101eb366004611108565b61074f565b61016060065481565b610160610207366004611121565b6001600160a01b031660009081526007602052604090205490565b6101c86102303660046110a2565b61088e565b61025c7f000000000000000000000000000000000000000000000000000000000000000081565b6040516001600160a01b039091168152602001610130565b6101236109bd565b61014c61028a3660046110a2565b6109cc565b61014c61029d3660046110a2565b610a47565b6101606102b0366004611143565b610b23565b6060600380546102c490611176565b80601f01602080910402602001604051908101604052809291908181526020018280546102f090611176565b801561033d5780601f106103125761010080835404028352916020019161033d565b820191906000526020600020905b81548152906001019060200180831161032057829003601f168201915b5050505050905090565b600033610355818585610b4e565b60019150505b92915050565b60003361036f858285610c73565b61037a858585610ced565b506001949350505050565b6000336103558185856103988383610b23565b6103a291906111c6565b610b4e565b336001600160a01b037f000000000000000000000000000000000000000000000000000000000000000016146103f85760405162461bcd60e51b81526004016103ef906111d9565b60405180910390fd5b6005548160065461040991906111c6565b11156104575760405162461bcd60e51b815260206004820152601d60248201527f546f74616c20737570706c7920686173206265656e207265616368656400000060448201526064016103ef565b600081116104a75760405162461bcd60e51b815260206004820152601a60248201527f416d6f756e74206d757374206265206d6f7265207468616e203000000000000060448201526064016103ef565b80600660008282546104b991906111c6565b90915550506001600160a01b038216600090815260076020526040812080548392906104e69084906111c6565b909155506104f690508282610e7f565b6040518181526001600160a01b038316903390600080516020611210833981519152906020015b60405180910390a35050565b336001600160a01b037f000000000000000000000000000000000000000000000000000000000000000016146105715760405162461bcd60e51b81526004016103ef906111d9565b6001600160a01b037f0000000000000000000000000000000000000000000000000000000000000000166000908152600760205260409020548111610644576105da7f000000000000000000000000000000000000000000000000000000000000000082610f25565b80600660008282546105ec91906111fc565b90915550506001600160a01b037f000000000000000000000000000000000000000000000000000000000000000016600090815260076020526040812080548392906106399084906111fc565b909155506107139050565b7f00000000000000000000000000000000000000000000000000000000000000006001600160a01b0381166000908152600760205260409020546106889190610f25565b6001600160a01b037f00000000000000000000000000000000000000000000000000000000000000001660009081526007602052604081205460068054919290916106d49084906111fc565b90915550506001600160a01b037f0000000000000000000000000000000000000000000000000000000000000000166000908152600760205260408120555b60408051338152602081018390527fcc16f5dbb4873280815c1ee09dbd06736cffcc184412cf7a71a0fdb75d397ca5910160405180910390a150565b6000336001600160a01b037f000000000000000000000000000000000000000000000000000000000000000016146107995760405162461bcd60e51b81526004016103ef906111d9565b6006548210156107f75760405162461bcd60e51b8152602060048201526024808201527f4e657720746f74616c206973206c657373207468616e206d696e74656420746f6044820152636b656e7360e01b60648201526084016103ef565b600082116108475760405162461bcd60e51b815260206004820152601d60248201527f4e657720746f74616c206d757374206265206d6f7265207468616e203000000060448201526064016103ef565b600582905560408051338152602081018490527f5f66d2a93b609bc6596b75c6dbb0e4f3f7cafd4b3b617157ff304d1076e58375910160405180910390a15060015b919050565b336001600160a01b037f000000000000000000000000000000000000000000000000000000000000000016146108d65760405162461bcd60e51b81526004016103ef906111d9565b6001600160a01b0382166000908152600760205260409020548111610932576108ff8282610f25565b6001600160a01b038216600090815260076020526040812080548392906109279084906111fc565b909155506109709050565b6001600160a01b038216600090815260076020526040902054610956908390610f25565b6001600160a01b0382166000908152600760205260408120555b604080513381526001600160a01b03841660208201529081018290527f3c7611a5be35512cb20a6f2f039b47efb0d70f9c538e3886fa3f3e9c32af924f9060600160405180910390a15050565b6060600480546102c490611176565b600033816109da8286610b23565b905083811015610a3a5760405162461bcd60e51b815260206004820152602560248201527f45524332303a2064656372656173656420616c6c6f77616e63652062656c6f77604482015264207a65726f60d81b60648201526084016103ef565b61037a8286868403610b4e565b33600090815260076020526040812054821115610a9b5760405162461bcd60e51b815260206004820152601260248201527124b739bab33334b1b4b2b73a103a37b5b2b760711b60448201526064016103ef565b3360009081526007602052604081208054849290610aba9084906111fc565b90915550506001600160a01b03831660009081526007602052604081208054849290610ae79084906111c6565b90915550506040518281526001600160a01b0384169033906000805160206112108339815191529060200160405180910390a350600192915050565b6001600160a01b03918216600090815260016020908152604080832093909416825291909152205490565b6001600160a01b038316610bb05760405162461bcd60e51b8152602060048201526024808201527f45524332303a20617070726f76652066726f6d20746865207a65726f206164646044820152637265737360e01b60648201526084016103ef565b6001600160a01b038216610c115760405162461bcd60e51b815260206004820152602260248201527f45524332303a20617070726f766520746f20746865207a65726f206164647265604482015261737360f01b60648201526084016103ef565b6001600160a01b0383811660008181526001602090815260408083209487168084529482529182902085905590518481527f8c5be1e5ebec7d5bd14f71427d1e84f3dd0314c0f7b2291e5b200ac8c7c3b92591015b60405180910390a3505050565b6000610c7f8484610b23565b90506000198114610ce75781811015610cda5760405162461bcd60e51b815260206004820152601d60248201527f45524332303a20696e73756666696369656e7420616c6c6f77616e636500000060448201526064016103ef565b610ce78484848403610b4e565b50505050565b6001600160a01b038316610d515760405162461bcd60e51b815260206004820152602560248201527f45524332303a207472616e736665722066726f6d20746865207a65726f206164604482015264647265737360d81b60648201526084016103ef565b6001600160a01b038216610db35760405162461bcd60e51b815260206004820152602360248201527f45524332303a207472616e7366657220746f20746865207a65726f206164647260448201526265737360e81b60648201526084016103ef565b6001600160a01b03831660009081526020819052604090205481811015610e2b5760405162461bcd60e51b815260206004820152602660248201527f45524332303a207472616e7366657220616d6f756e7420657863656564732062604482015265616c616e636560d01b60648201526084016103ef565b6001600160a01b0384811660008181526020818152604080832087870390559387168083529184902080548701905592518581529092600080516020611210833981519152910160405180910390a3610ce7565b6001600160a01b038216610ed55760405162461bcd60e51b815260206004820152601f60248201527f45524332303a206d696e7420746f20746865207a65726f20616464726573730060448201526064016103ef565b8060026000828254610ee791906111c6565b90915550506001600160a01b03821660008181526020818152604080832080548601905551848152600080516020611210833981519152910161051d565b6001600160a01b038216610f855760405162461bcd60e51b815260206004820152602160248201527f45524332303a206275726e2066726f6d20746865207a65726f206164647265736044820152607360f81b60648201526084016103ef565b6001600160a01b03821660009081526020819052604090205481811015610ff95760405162461bcd60e51b815260206004820152602260248201527f45524332303a206275726e20616d6f756e7420657863656564732062616c616e604482015261636560f01b60648201526084016103ef565b6001600160a01b0383166000818152602081815260408083208686039055600280548790039055518581529192916000805160206112108339815191529101610c66565b600060208083528351808285015260005b8181101561106a5785810183015185820160400152820161104e565b506000604082860101526040601f19601f8301168501019250505092915050565b80356001600160a01b038116811461088957600080fd5b600080604083850312156110b557600080fd5b6110be8361108b565b946020939093013593505050565b6000806000606084860312156110e157600080fd5b6110ea8461108b565b92506110f86020850161108b565b9150604084013590509250925092565b60006020828403121561111a57600080fd5b5035919050565b60006020828403121561113357600080fd5b61113c8261108b565b9392505050565b6000806040838503121561115657600080fd5b61115f8361108b565b915061116d6020840161108b565b90509250929050565b600181811c9082168061118a57607f821691505b6020821081036111aa57634e487b7160e01b600052602260045260246000fd5b50919050565b634e487b7160e01b600052601160045260246000fd5b8082018082111561035b5761035b6111b0565b6020808252600990820152682737ba1037bbb732b960b91b604082015260600190565b8181038181111561035b5761035b6111b056feddf252ad1be2c89b69c2b068fc378daa952ba7f163c4a11628f55a4df523b3efa2646970667358221220929854bd8bc33c59e6646922b27adeeb6bf26c1565359b2a2d3ef3d321c04c8164736f6c63430008130033",
    "sourcePath": "c:/Users/Chia/Documents/ReactDev/React Express/Tokenising/server/app/contracts/ERC20TokenDSGD.sol",
    "compiler": {
        "name": "solc",
        "version": "0.8.19+commit.7dd6d404"
    },
    "functionHashes": {
        "DECIMALS()": "2e0f2625",
        "_incirculation()": "6dd66857",
        "allowance(address,address)": "dd62ed3e",
        "approve(address,uint256)": "095ea7b3",
        "balanceOf(address)": "70a08231",
        "burn(uint256)": "42966c68",
        "burnFrom(address,uint256)": "79cc6790",
        "decimals()": "313ce567",
        "decreaseAllowance(address,uint256)": "a457c2d7",
        "increaseAllowance(address,uint256)": "39509351",
        "mint(address,uint256)": "40c10f19",
        "name()": "06fdde03",
        "owner()": "8da5cb5b",
        "symbol()": "95d89b41",
        "totalSupply()": "18160ddd",
        "transfer(address,uint256)": "a9059cbb",
        "transferFrom(address,address,uint256)": "23b872dd",
        "updateTotalSupply(uint256)": "66d49bab"
    },
    "gasEstimates": {
        "creation": {
            "codeDepositCost": "941800",
            "executionCost": "infinite",
            "totalCost": "infinite"
        },
        "external": {
            "DECIMALS()": "227",
            "_incirculation()": "2340",
            "allowance(address,address)": "infinite",
            "approve(address,uint256)": "24652",
            "balanceOf(address)": "2604",
            "burn(uint256)": "infinite",
            "burnFrom(address,uint256)": "infinite",
            "decimals()": "246",
            "decreaseAllowance(address,uint256)": "27017",
            "increaseAllowance(address,uint256)": "infinite",
            "mint(address,uint256)": "infinite",
            "name()": "infinite",
            "owner()": "infinite",
            "symbol()": "infinite",
            "totalSupply()": "2349",
            "transfer(address,uint256)": "infinite",
            "transferFrom(address,address,uint256)": "infinite",
            "updateTotalSupply(uint256)": "infinite"
        }
    }
}