{
    "contractName": "PBMToken",
    "abi": [
        {
            "inputs": [
                {
                    "internalType": "address",
                    "name": "_underlyingAddress",
                    "type": "address"
                },
                {
                    "internalType": "string",
                    "name": "_name",
                    "type": "string"
                },
                {
                    "internalType": "string",
                    "name": "_symbol",
                    "type": "string"
                },
                {
                    "internalType": "uint256",
                    "name": "_contractExpiry",
                    "type": "uint256"
                }
            ],
            "stateMutability": "nonpayable",
            "type": "constructor"
        },
        {
            "anonymous": false,
            "inputs": [
                {
                    "indexed": true,
                    "internalType": "address",
                    "name": "owner",
                    "type": "address"
                },
                {
                    "indexed": true,
                    "internalType": "address",
                    "name": "spender",
                    "type": "address"
                },
                {
                    "indexed": false,
                    "internalType": "uint256",
                    "name": "value",
                    "type": "uint256"
                }
            ],
            "name": "Approval",
            "type": "event"
        },
        {
            "anonymous": false,
            "inputs": [
                {
                    "indexed": false,
                    "internalType": "address",
                    "name": "admin",
                    "type": "address"
                }
            ],
            "name": "CampaignExtended",
            "type": "event"
        },
        {
            "anonymous": false,
            "inputs": [
                {
                    "indexed": false,
                    "internalType": "address",
                    "name": "account",
                    "type": "address"
                },
                {
                    "indexed": false,
                    "internalType": "address",
                    "name": "admin",
                    "type": "address"
                }
            ],
            "name": "MerchantAdded",
            "type": "event"
        },
        {
            "anonymous": false,
            "inputs": [
                {
                    "indexed": false,
                    "internalType": "address",
                    "name": "account",
                    "type": "address"
                },
                {
                    "indexed": false,
                    "internalType": "address",
                    "name": "admin",
                    "type": "address"
                }
            ],
            "name": "MerchantRevoked",
            "type": "event"
        },
        {
            "anonymous": false,
            "inputs": [
                {
                    "indexed": false,
                    "internalType": "address",
                    "name": "account",
                    "type": "address"
                },
                {
                    "indexed": false,
                    "internalType": "uint256",
                    "name": "amount",
                    "type": "uint256"
                }
            ],
            "name": "OwnerWithdrawal",
            "type": "event"
        },
        {
            "anonymous": false,
            "inputs": [
                {
                    "indexed": false,
                    "internalType": "address",
                    "name": "account",
                    "type": "address"
                }
            ],
            "name": "Paused",
            "type": "event"
        },
        {
            "anonymous": false,
            "inputs": [
                {
                    "indexed": true,
                    "internalType": "address",
                    "name": "fromUser",
                    "type": "address"
                },
                {
                    "indexed": true,
                    "internalType": "address",
                    "name": "toUser",
                    "type": "address"
                },
                {
                    "indexed": false,
                    "internalType": "uint256",
                    "name": "amount",
                    "type": "uint256"
                }
            ],
            "name": "Redemption",
            "type": "event"
        },
        {
            "anonymous": false,
            "inputs": [
                {
                    "indexed": true,
                    "internalType": "bytes32",
                    "name": "role",
                    "type": "bytes32"
                },
                {
                    "indexed": true,
                    "internalType": "bytes32",
                    "name": "previousAdminRole",
                    "type": "bytes32"
                },
                {
                    "indexed": true,
                    "internalType": "bytes32",
                    "name": "newAdminRole",
                    "type": "bytes32"
                }
            ],
            "name": "RoleAdminChanged",
            "type": "event"
        },
        {
            "anonymous": false,
            "inputs": [
                {
                    "indexed": true,
                    "internalType": "bytes32",
                    "name": "role",
                    "type": "bytes32"
                },
                {
                    "indexed": true,
                    "internalType": "address",
                    "name": "account",
                    "type": "address"
                },
                {
                    "indexed": true,
                    "internalType": "address",
                    "name": "sender",
                    "type": "address"
                }
            ],
            "name": "RoleGranted",
            "type": "event"
        },
        {
            "anonymous": false,
            "inputs": [
                {
                    "indexed": true,
                    "internalType": "bytes32",
                    "name": "role",
                    "type": "bytes32"
                },
                {
                    "indexed": true,
                    "internalType": "address",
                    "name": "account",
                    "type": "address"
                },
                {
                    "indexed": true,
                    "internalType": "address",
                    "name": "sender",
                    "type": "address"
                }
            ],
            "name": "RoleRevoked",
            "type": "event"
        },
        {
            "anonymous": false,
            "inputs": [
                {
                    "indexed": true,
                    "internalType": "address",
                    "name": "from",
                    "type": "address"
                },
                {
                    "indexed": true,
                    "internalType": "address",
                    "name": "to",
                    "type": "address"
                },
                {
                    "indexed": false,
                    "internalType": "uint256",
                    "name": "value",
                    "type": "uint256"
                }
            ],
            "name": "Transfer",
            "type": "event"
        },
        {
            "anonymous": false,
            "inputs": [
                {
                    "indexed": false,
                    "internalType": "address",
                    "name": "account",
                    "type": "address"
                }
            ],
            "name": "Unpaused",
            "type": "event"
        },
        {
            "inputs": [],
            "name": "DEFAULT_ADMIN_ROLE",
            "outputs": [
                {
                    "internalType": "bytes32",
                    "name": "",
                    "type": "bytes32"
                }
            ],
            "stateMutability": "view",
            "type": "function"
        },
        {
            "inputs": [],
            "name": "MERCHANT_ADMIN_ROLE",
            "outputs": [
                {
                    "internalType": "bytes32",
                    "name": "",
                    "type": "bytes32"
                }
            ],
            "stateMutability": "view",
            "type": "function"
        },
        {
            "inputs": [],
            "name": "MERCHANT_ROLE",
            "outputs": [
                {
                    "internalType": "bytes32",
                    "name": "",
                    "type": "bytes32"
                }
            ],
            "stateMutability": "view",
            "type": "function"
        },
        {
            "inputs": [
                {
                    "internalType": "address",
                    "name": "owner",
                    "type": "address"
                },
                {
                    "internalType": "address",
                    "name": "spender",
                    "type": "address"
                }
            ],
            "name": "allowance",
            "outputs": [
                {
                    "internalType": "uint256",
                    "name": "",
                    "type": "uint256"
                }
            ],
            "stateMutability": "view",
            "type": "function"
        },
        {
            "inputs": [
                {
                    "internalType": "address",
                    "name": "spender",
                    "type": "address"
                },
                {
                    "internalType": "uint256",
                    "name": "amount",
                    "type": "uint256"
                }
            ],
            "name": "approve",
            "outputs": [
                {
                    "internalType": "bool",
                    "name": "",
                    "type": "bool"
                }
            ],
            "stateMutability": "nonpayable",
            "type": "function"
        },
        {
            "inputs": [
                {
                    "internalType": "address",
                    "name": "account",
                    "type": "address"
                }
            ],
            "name": "balanceOf",
            "outputs": [
                {
                    "internalType": "uint256",
                    "name": "",
                    "type": "uint256"
                }
            ],
            "stateMutability": "view",
            "type": "function"
        },
        {
            "inputs": [],
            "name": "contractExpiry",
            "outputs": [
                {
                    "internalType": "uint256",
                    "name": "",
                    "type": "uint256"
                }
            ],
            "stateMutability": "view",
            "type": "function"
        },
        {
            "inputs": [],
            "name": "decimals",
            "outputs": [
                {
                    "internalType": "uint8",
                    "name": "",
                    "type": "uint8"
                }
            ],
            "stateMutability": "view",
            "type": "function"
        },
        {
            "inputs": [
                {
                    "internalType": "address",
                    "name": "spender",
                    "type": "address"
                },
                {
                    "internalType": "uint256",
                    "name": "subtractedValue",
                    "type": "uint256"
                }
            ],
            "name": "decreaseAllowance",
            "outputs": [
                {
                    "internalType": "bool",
                    "name": "",
                    "type": "bool"
                }
            ],
            "stateMutability": "nonpayable",
            "type": "function"
        },
        {
            "inputs": [
                {
                    "internalType": "uint256",
                    "name": "expiryDate",
                    "type": "uint256"
                }
            ],
            "name": "extendExpiry",
            "outputs": [],
            "stateMutability": "nonpayable",
            "type": "function"
        },
        {
            "inputs": [
                {
                    "internalType": "bytes32",
                    "name": "role",
                    "type": "bytes32"
                }
            ],
            "name": "getRoleAdmin",
            "outputs": [
                {
                    "internalType": "bytes32",
                    "name": "",
                    "type": "bytes32"
                }
            ],
            "stateMutability": "view",
            "type": "function"
        },
        {
            "inputs": [
                {
                    "internalType": "address",
                    "name": "account",
                    "type": "address"
                }
            ],
            "name": "grantMerchantRole",
            "outputs": [],
            "stateMutability": "nonpayable",
            "type": "function"
        },
        {
            "inputs": [
                {
                    "internalType": "bytes32",
                    "name": "role",
                    "type": "bytes32"
                },
                {
                    "internalType": "address",
                    "name": "account",
                    "type": "address"
                }
            ],
            "name": "grantRole",
            "outputs": [],
            "stateMutability": "nonpayable",
            "type": "function"
        },
        {
            "inputs": [
                {
                    "internalType": "bytes32",
                    "name": "role",
                    "type": "bytes32"
                },
                {
                    "internalType": "address",
                    "name": "account",
                    "type": "address"
                }
            ],
            "name": "hasRole",
            "outputs": [
                {
                    "internalType": "bool",
                    "name": "",
                    "type": "bool"
                }
            ],
            "stateMutability": "view",
            "type": "function"
        },
        {
            "inputs": [
                {
                    "internalType": "address",
                    "name": "spender",
                    "type": "address"
                },
                {
                    "internalType": "uint256",
                    "name": "addedValue",
                    "type": "uint256"
                }
            ],
            "name": "increaseAllowance",
            "outputs": [
                {
                    "internalType": "bool",
                    "name": "",
                    "type": "bool"
                }
            ],
            "stateMutability": "nonpayable",
            "type": "function"
        },
        {
            "inputs": [],
            "name": "name",
            "outputs": [
                {
                    "internalType": "string",
                    "name": "",
                    "type": "string"
                }
            ],
            "stateMutability": "view",
            "type": "function"
        },
        {
            "inputs": [],
            "name": "owner",
            "outputs": [
                {
                    "internalType": "address",
                    "name": "",
                    "type": "address"
                }
            ],
            "stateMutability": "view",
            "type": "function"
        },
        {
            "inputs": [],
            "name": "pause",
            "outputs": [],
            "stateMutability": "nonpayable",
            "type": "function"
        },
        {
            "inputs": [],
            "name": "paused",
            "outputs": [
                {
                    "internalType": "bool",
                    "name": "",
                    "type": "bool"
                }
            ],
            "stateMutability": "view",
            "type": "function"
        },
        {
            "inputs": [
                {
                    "internalType": "address",
                    "name": "account",
                    "type": "address"
                }
            ],
            "name": "recover",
            "outputs": [
                {
                    "internalType": "uint256",
                    "name": "",
                    "type": "uint256"
                }
            ],
            "stateMutability": "nonpayable",
            "type": "function"
        },
        {
            "inputs": [
                {
                    "internalType": "address",
                    "name": "toUser",
                    "type": "address"
                },
                {
                    "internalType": "uint256",
                    "name": "amount",
                    "type": "uint256"
                }
            ],
            "name": "redeem",
            "outputs": [],
            "stateMutability": "nonpayable",
            "type": "function"
        },
        {
            "inputs": [
                {
                    "internalType": "bytes32",
                    "name": "_role",
                    "type": "bytes32"
                },
                {
                    "internalType": "address",
                    "name": "_account",
                    "type": "address"
                }
            ],
            "name": "renounceRole",
            "outputs": [],
            "stateMutability": "nonpayable",
            "type": "function"
        },
        {
            "inputs": [
                {
                    "internalType": "address",
                    "name": "account",
                    "type": "address"
                }
            ],
            "name": "revokeMerchantRole",
            "outputs": [],
            "stateMutability": "nonpayable",
            "type": "function"
        },
        {
            "inputs": [
                {
                    "internalType": "bytes32",
                    "name": "role",
                    "type": "bytes32"
                },
                {
                    "internalType": "address",
                    "name": "account",
                    "type": "address"
                }
            ],
            "name": "revokeRole",
            "outputs": [],
            "stateMutability": "nonpayable",
            "type": "function"
        },
        {
            "inputs": [
                {
                    "internalType": "bytes4",
                    "name": "interfaceId",
                    "type": "bytes4"
                }
            ],
            "name": "supportsInterface",
            "outputs": [
                {
                    "internalType": "bool",
                    "name": "",
                    "type": "bool"
                }
            ],
            "stateMutability": "view",
            "type": "function"
        },
        {
            "inputs": [],
            "name": "symbol",
            "outputs": [
                {
                    "internalType": "string",
                    "name": "",
                    "type": "string"
                }
            ],
            "stateMutability": "view",
            "type": "function"
        },
        {
            "inputs": [],
            "name": "totalSupply",
            "outputs": [
                {
                    "internalType": "uint256",
                    "name": "",
                    "type": "uint256"
                }
            ],
            "stateMutability": "view",
            "type": "function"
        },
        {
            "inputs": [
                {
                    "internalType": "address",
                    "name": "to",
                    "type": "address"
                },
                {
                    "internalType": "uint256",
                    "name": "amount",
                    "type": "uint256"
                }
            ],
            "name": "transfer",
            "outputs": [
                {
                    "internalType": "bool",
                    "name": "",
                    "type": "bool"
                }
            ],
            "stateMutability": "nonpayable",
            "type": "function"
        },
        {
            "inputs": [
                {
                    "internalType": "address",
                    "name": "from",
                    "type": "address"
                },
                {
                    "internalType": "address",
                    "name": "to",
                    "type": "address"
                },
                {
                    "internalType": "uint256",
                    "name": "amount",
                    "type": "uint256"
                }
            ],
            "name": "transferFrom",
            "outputs": [
                {
                    "internalType": "bool",
                    "name": "",
                    "type": "bool"
                }
            ],
            "stateMutability": "nonpayable",
            "type": "function"
        },
        {
            "inputs": [],
            "name": "underlyingToken",
            "outputs": [
                {
                    "internalType": "contract IERC20Metadata",
                    "name": "",
                    "type": "address"
                }
            ],
            "stateMutability": "view",
            "type": "function"
        },
        {
            "inputs": [],
            "name": "unpause",
            "outputs": [],
            "stateMutability": "nonpayable",
            "type": "function"
        },
        {
            "inputs": [],
            "name": "withdraw",
            "outputs": [
                {
                    "internalType": "bool",
                    "name": "",
                    "type": "bool"
                }
            ],
            "stateMutability": "nonpayable",
            "type": "function"
        },
        {
            "inputs": [
                {
                    "internalType": "address",
                    "name": "toUser",
                    "type": "address"
                },
                {
                    "internalType": "uint256",
                    "name": "amount",
                    "type": "uint256"
                }
            ],
            "name": "wrapMint",
            "outputs": [],
            "stateMutability": "nonpayable",
            "type": "function"
        }
    ],
    "bytecode": "60c06040523480156200001157600080fd5b50604051620024cf380380620024cf83398101604081905262000034916200028c565b82826003620000448382620003ad565b506004620000538282620003ad565b50506005805460ff19169055503360a08190526001600160a01b0385166080526200008f90600080516020620024af83398151915290620000d7565b620000ca7f3c4a2d89ed8b4cf4347fec87df1c38410f8fc538bf9fd64c10f2717bc0feff36600080516020620024af8339815191526200017c565b6007555062000479915050565b60008281526006602090815260408083206001600160a01b038516845290915290205460ff16620001785760008281526006602090815260408083206001600160a01b03851684529091529020805460ff19166001179055620001373390565b6001600160a01b0316816001600160a01b0316837f2f8788117e7eff1d82e926ec794901d17c78024a50270940304540a733656f0d60405160405180910390a45b5050565b600082815260066020526040808220600101805490849055905190918391839186917fbd79b86ffe0ab8e8776151514217cd7cacd52c909f66475c3af44e129f0b00ff9190a4505050565b634e487b7160e01b600052604160045260246000fd5b600082601f830112620001ef57600080fd5b81516001600160401b03808211156200020c576200020c620001c7565b604051601f8301601f19908116603f01168101908282118183101715620002375762000237620001c7565b816040528381526020925086838588010111156200025457600080fd5b600091505b8382101562000278578582018301518183018401529082019062000259565b600093810190920192909252949350505050565b60008060008060808587031215620002a357600080fd5b84516001600160a01b0381168114620002bb57600080fd5b60208601519094506001600160401b0380821115620002d957600080fd5b620002e788838901620001dd565b94506040870151915080821115620002fe57600080fd5b506200030d87828801620001dd565b606096909601519497939650505050565b600181811c908216806200033357607f821691505b6020821081036200035457634e487b7160e01b600052602260045260246000fd5b50919050565b601f821115620003a857600081815260208120601f850160051c81016020861015620003835750805b601f850160051c820191505b81811015620003a4578281556001016200038f565b5050505b505050565b81516001600160401b03811115620003c957620003c9620001c7565b620003e181620003da84546200031e565b846200035a565b602080601f831160018114620004195760008415620004005750858301515b600019600386901b1c1916600185901b178555620003a4565b600085815260208120601f198616915b828110156200044a5788860151825594840194600190910190840162000429565b5085821015620004695787850151600019600388901b60f8161c191681555b5050505050600190811b01905550565b60805160a051611fb5620004fa600039600081816103e9015281816105af01528181610912015281816109bc01528181610b0e01528181610b8101528181610c360152610d250152600081816102c90152818161061d0152818161074c015281816108150152818161097d01528181610a6a0152610aec0152611fb56000f3fe608060405234801561001057600080fd5b50600436106101fb5760003560e01c8063468862891161011a57806395d89b41116100ad578063b3d358391161007c578063b3d3583914610454578063c6eb7a0914610469578063d547741f1461047c578063dd62ed3e1461048f578063f7749e3c146104a257600080fd5b806395d89b411461041e578063a217fddf14610426578063a457c2d71461042e578063a9059cbb1461044157600080fd5b80638456cb59116100e95780638456cb59146103d357806389aba642146103db5780638da5cb5b146103e457806391d148541461040b57600080fd5b8063468862891461037957806350d264ca1461038c5780635c975abb1461039f57806370a08231146103aa57600080fd5b80632495a599116101925780633950935111610161578063395093511461034357806339722f6c146103565780633ccfd60b146103695780633f4ba83a1461037157600080fd5b80632495a599146102c45780632f2ff15d14610303578063313ce5671461031657806336568abe1461033057600080fd5b806318160ddd116101ce57806318160ddd146102715780631e9a69501461027957806323b872dd1461028e578063248a9ca3146102a157600080fd5b806301ffc9a71461020057806306fdde0314610228578063095ea7b31461023d5780630cd865ec14610250575b600080fd5b61021361020e366004611bcb565b6104c9565b60405190151581526020015b60405180910390f35b610230610500565b60405161021f9190611c19565b61021361024b366004611c63565b610592565b61026361025e366004611c8d565b6105aa565b60405190815260200161021f565b600254610263565b61028c610287366004611c63565b6106ae565b005b61021361029c366004611ca8565b6107c3565b6102636102af366004611ce4565b60009081526006602052604090206001015490565b6102eb7f000000000000000000000000000000000000000000000000000000000000000081565b6040516001600160a01b03909116815260200161021f565b61028c610311366004611cfd565b6107e7565b61031e610811565b60405160ff909116815260200161021f565b61028c61033e366004611cfd565b610897565b610213610351366004611c63565b6108ed565b61028c610364366004611c63565b61090f565b6102136109b7565b61028c610b7e565b61028c610387366004611c8d565b610bd0565b61028c61039a366004611ce4565b610c33565b60055460ff16610213565b6102636103b8366004611c8d565b6001600160a01b031660009081526020819052604090205490565b61028c610d22565b61026360075481565b6102eb7f000000000000000000000000000000000000000000000000000000000000000081565b610213610419366004611cfd565b610d72565b610230610d9d565b610263600081565b61021361043c366004611c63565b610dac565b61021361044f366004611c63565b610e27565b610263600080516020611f6083398151915281565b61028c610477366004611c8d565b610e35565b61028c61048a366004611cfd565b610e75565b61026361049d366004611d29565b610e9a565b6102637fb05c6909cf2a1e2d3bcdbd95f74e25619a115fb2b476743ef40361d34a1b244c81565b60006001600160e01b03198216637965db0b60e01b14806104fa57506301ffc9a760e01b6001600160e01b03198316145b92915050565b60606003805461050f90611d53565b80601f016020809104026020016040519081016040528092919081815260200182805461053b90611d53565b80156105885780601f1061055d57610100808354040283529160200191610588565b820191906000526020600020905b81548152906001019060200180831161056b57829003601f168201915b5050505050905090565b6000336105a0818585610ec5565b5060019392505050565b6000337f00000000000000000000000000000000000000000000000000000000000000006001600160a01b0316146105fd5760405162461bcd60e51b81526004016105f490611d8d565b60405180910390fd5b600061060860025490565b6040516370a0823160e01b81523060048201527f00000000000000000000000000000000000000000000000000000000000000006001600160a01b0316906370a0823190602401602060405180830381865afa15801561066c573d6000803e3d6000fd5b505050506040513d601f19601f820116820180604052508101906106909190611db0565b61069a9190611ddf565b90506106a68382610fe1565b90505b919050565b60075442106106cf5760405162461bcd60e51b81526004016105f490611df2565b816106e8600080516020611f6083398151915282610d72565b61073f5760405162461bcd60e51b815260206004820152602260248201527f726563697069656e74206e6f7420616e20617070726f766564206d65726368616044820152611b9d60f21b60648201526084016105f4565b6107736001600160a01b037f00000000000000000000000000000000000000000000000000000000000000001684846110ac565b61077d338361110f565b6040518281526001600160a01b0384169033907f211e721db9e446132bc018602a497cf5713e88e7d61084ce4d30e7ee4fc9d2bd906020015b60405180910390a3505050565b6000336107d185828561124d565b6107dc8585856112c7565b506001949350505050565b60008281526006602052604090206001015461080281611476565b61080c8383611483565b505050565b60007f00000000000000000000000000000000000000000000000000000000000000006001600160a01b031663313ce5676040518163ffffffff1660e01b8152600401602060405180830381865afa92505050801561088d575060408051601f3d908101601f1916820190925261088a91810190611e1c565b60015b6106a95750601290565b60405162461bcd60e51b815260206004820152602160248201527f6665617475726520626c6f636b656420666f722063757272656e7420747269616044820152601b60fa1b60648201526084016105f4565b5050565b6000336105a08185856109008383610e9a565b61090a9190611e3f565b610ec5565b337f00000000000000000000000000000000000000000000000000000000000000006001600160a01b0316146109575760405162461bcd60e51b81526004016105f490611d8d565b60075442106109785760405162461bcd60e51b81526004016105f490611df2565b6109ad7f00000000000000000000000000000000000000000000000000000000000000006001600160a01b0316333084611509565b6108e98282610fe1565b6000337f00000000000000000000000000000000000000000000000000000000000000006001600160a01b031614610a015760405162461bcd60e51b81526004016105f490611d8d565b6007544211610a525760405162461bcd60e51b815260206004820152601b60248201527f636f6e747261637420657870697279206e6f742072656163686564000000000060448201526064016105f4565b6040516370a0823160e01b81523060048201526000907f00000000000000000000000000000000000000000000000000000000000000006001600160a01b0316906370a0823190602401602060405180830381865afa158015610ab9573d6000803e3d6000fd5b505050506040513d601f19601f82011682018060405250810190610add9190611db0565b9050610b336001600160a01b037f0000000000000000000000000000000000000000000000000000000000000000167f0000000000000000000000000000000000000000000000000000000000000000836110ac565b7fa919fadcfa556a012bab31b15f596ea7ccd397adbf10e15f176db9055ab361c433604080516001600160a01b039092168252602082018490520160405180910390a1600191505090565b337f00000000000000000000000000000000000000000000000000000000000000006001600160a01b031614610bc65760405162461bcd60e51b81526004016105f490611d8d565b610bce611541565b565b610be8600080516020611f60833981519152826107e7565b7fe87d651528a048f986f55d996a630f6b7a7d1788e1dfb444abc5d19e82b8ede081335b604080516001600160a01b039384168152929091166020830152015b60405180910390a150565b337f00000000000000000000000000000000000000000000000000000000000000006001600160a01b031614610c7b5760405162461bcd60e51b81526004016105f490611d8d565b6007544210610c9c5760405162461bcd60e51b81526004016105f490611df2565b6007548111610ced5760405162461bcd60e51b815260206004820152601a60248201527f63616e6e6f742073686f7274656e20657870697279206461746500000000000060448201526064016105f4565b60078190556040513381527f45147e8ad6d7458f76d864e1a284f920d2397f76ef5be25d0b284c66a9f58dfa90602001610c28565b337f00000000000000000000000000000000000000000000000000000000000000006001600160a01b031614610d6a5760405162461bcd60e51b81526004016105f490611d8d565b610bce611593565b60009182526006602090815260408084206001600160a01b0393909316845291905290205460ff1690565b60606004805461050f90611d53565b60003381610dba8286610e9a565b905083811015610e1a5760405162461bcd60e51b815260206004820152602560248201527f45524332303a2064656372656173656420616c6c6f77616e63652062656c6f77604482015264207a65726f60d81b60648201526084016105f4565b6107dc8286868403610ec5565b6000336105a08185856112c7565b610e4d600080516020611f6083398151915282610e75565b7fdd7dae67d38438d129587371eb57496a24d43fdb619cdeab42ab1087d71f2a3e8133610c0c565b600082815260066020526040902060010154610e9081611476565b61080c83836115d0565b6001600160a01b03918216600090815260016020908152604080832093909416825291909152205490565b6001600160a01b038316610f275760405162461bcd60e51b8152602060048201526024808201527f45524332303a20617070726f76652066726f6d20746865207a65726f206164646044820152637265737360e01b60648201526084016105f4565b6001600160a01b038216610f885760405162461bcd60e51b815260206004820152602260248201527f45524332303a20617070726f766520746f20746865207a65726f206164647265604482015261737360f01b60648201526084016105f4565b6001600160a01b0383811660008181526001602090815260408083209487168084529482529182902085905590518481527f8c5be1e5ebec7d5bd14f71427d1e84f3dd0314c0f7b2291e5b200ac8c7c3b92591016107b6565b6001600160a01b0382166110375760405162461bcd60e51b815260206004820152601f60248201527f45524332303a206d696e7420746f20746865207a65726f20616464726573730060448201526064016105f4565b61104360008383611637565b80600260008282546110559190611e3f565b90915550506001600160a01b038216600081815260208181526040808320805486019055518481527fddf252ad1be2c89b69c2b068fc378daa952ba7f163c4a11628f55a4df523b3ef910160405180910390a35050565b6040516001600160a01b03831660248201526044810182905261080c90849063a9059cbb60e01b906064015b60408051601f198184030181529190526020810180516001600160e01b03166001600160e01b031990931692909217909152611663565b6001600160a01b03821661116f5760405162461bcd60e51b815260206004820152602160248201527f45524332303a206275726e2066726f6d20746865207a65726f206164647265736044820152607360f81b60648201526084016105f4565b61117b82600083611637565b6001600160a01b038216600090815260208190526040902054818110156111ef5760405162461bcd60e51b815260206004820152602260248201527f45524332303a206275726e20616d6f756e7420657863656564732062616c616e604482015261636560f01b60648201526084016105f4565b6001600160a01b0383166000818152602081815260408083208686039055600280548790039055518581529192917fddf252ad1be2c89b69c2b068fc378daa952ba7f163c4a11628f55a4df523b3ef910160405180910390a3505050565b60006112598484610e9a565b905060001981146112c157818110156112b45760405162461bcd60e51b815260206004820152601d60248201527f45524332303a20696e73756666696369656e7420616c6c6f77616e636500000060448201526064016105f4565b6112c18484848403610ec5565b50505050565b6001600160a01b03831661132b5760405162461bcd60e51b815260206004820152602560248201527f45524332303a207472616e736665722066726f6d20746865207a65726f206164604482015264647265737360d81b60648201526084016105f4565b6001600160a01b03821661138d5760405162461bcd60e51b815260206004820152602360248201527f45524332303a207472616e7366657220746f20746865207a65726f206164647260448201526265737360e81b60648201526084016105f4565b611398838383611637565b6001600160a01b038316600090815260208190526040902054818110156114105760405162461bcd60e51b815260206004820152602660248201527f45524332303a207472616e7366657220616d6f756e7420657863656564732062604482015265616c616e636560d01b60648201526084016105f4565b6001600160a01b03848116600081815260208181526040808320878703905593871680835291849020805487019055925185815290927fddf252ad1be2c89b69c2b068fc378daa952ba7f163c4a11628f55a4df523b3ef910160405180910390a36112c1565b6114808133611738565b50565b61148d8282610d72565b6108e95760008281526006602090815260408083206001600160a01b03851684529091529020805460ff191660011790556114c53390565b6001600160a01b0316816001600160a01b0316837f2f8788117e7eff1d82e926ec794901d17c78024a50270940304540a733656f0d60405160405180910390a45050565b6040516001600160a01b03808516602483015283166044820152606481018290526112c19085906323b872dd60e01b906084016110d8565b611549611791565b6005805460ff191690557f5db9ee0a495bf2e6ff9c91a7834c1ba4fdd244a5e8aa4e537bd38aeae4b073aa335b6040516001600160a01b03909116815260200160405180910390a1565b61159b6117da565b6005805460ff191660011790557f62e78cea01bee320cd4e420270b5ea74000d11b0c9f74754ebdbfc544b05a2586115763390565b6115da8282610d72565b156108e95760008281526006602090815260408083206001600160a01b0385168085529252808320805460ff1916905551339285917ff6391f5c32d9c69d2a47ea670b442974b53935d1edc7fd64eb21e047a839171b9190a45050565b60075442106116585760405162461bcd60e51b81526004016105f490611df2565b61080c838383611820565b60006116b8826040518060400160405280602081526020017f5361666545524332303a206c6f772d6c6576656c2063616c6c206661696c6564815250856001600160a01b03166118869092919063ffffffff16565b90508051600014806116d95750808060200190518101906116d99190611e52565b61080c5760405162461bcd60e51b815260206004820152602a60248201527f5361666545524332303a204552433230206f7065726174696f6e20646964206e6044820152691bdd081cdd58d8d9595960b21b60648201526084016105f4565b6117428282610d72565b6108e95761174f8161189d565b61175a8360206118af565b60405160200161176b929190611e74565b60408051601f198184030181529082905262461bcd60e51b82526105f491600401611c19565b60055460ff16610bce5760405162461bcd60e51b815260206004820152601460248201527314185d5cd8589b194e881b9bdd081c185d5cd95960621b60448201526064016105f4565b60055460ff1615610bce5760405162461bcd60e51b815260206004820152601060248201526f14185d5cd8589b194e881c185d5cd95960821b60448201526064016105f4565b60055460ff161561080c5760405162461bcd60e51b815260206004820152602a60248201527f45524332305061757361626c653a20746f6b656e207472616e736665722077686044820152691a5b19481c185d5cd95960b21b60648201526084016105f4565b60606118958484600085611a52565b949350505050565b60606104fa6001600160a01b03831660145b606060006118be836002611ee9565b6118c9906002611e3f565b67ffffffffffffffff8111156118e1576118e1611f00565b6040519080825280601f01601f19166020018201604052801561190b576020820181803683370190505b509050600360fc1b8160008151811061192657611926611f16565b60200101906001600160f81b031916908160001a905350600f60fb1b8160018151811061195557611955611f16565b60200101906001600160f81b031916908160001a9053506000611979846002611ee9565b611984906001611e3f565b90505b60018111156119fc576f181899199a1a9b1b9c1cb0b131b232b360811b85600f16601081106119b8576119b8611f16565b1a60f81b8282815181106119ce576119ce611f16565b60200101906001600160f81b031916908160001a90535060049490941c936119f581611f2c565b9050611987565b508315611a4b5760405162461bcd60e51b815260206004820181905260248201527f537472696e67733a20686578206c656e67746820696e73756666696369656e7460448201526064016105f4565b9392505050565b606082471015611ab35760405162461bcd60e51b815260206004820152602660248201527f416464726573733a20696e73756666696369656e742062616c616e636520666f6044820152651c8818d85b1b60d21b60648201526084016105f4565b600080866001600160a01b03168587604051611acf9190611f43565b60006040518083038185875af1925050503d8060008114611b0c576040519150601f19603f3d011682016040523d82523d6000602084013e611b11565b606091505b5091509150611b2287838387611b2d565b979650505050505050565b60608315611b9c578251600003611b95576001600160a01b0385163b611b955760405162461bcd60e51b815260206004820152601d60248201527f416464726573733a2063616c6c20746f206e6f6e2d636f6e747261637400000060448201526064016105f4565b5081611895565b6118958383815115611bb15781518083602001fd5b8060405162461bcd60e51b81526004016105f49190611c19565b600060208284031215611bdd57600080fd5b81356001600160e01b031981168114611a4b57600080fd5b60005b83811015611c10578181015183820152602001611bf8565b50506000910152565b6020815260008251806020840152611c38816040850160208701611bf5565b601f01601f19169190910160400192915050565b80356001600160a01b03811681146106a957600080fd5b60008060408385031215611c7657600080fd5b611c7f83611c4c565b946020939093013593505050565b600060208284031215611c9f57600080fd5b611a4b82611c4c565b600080600060608486031215611cbd57600080fd5b611cc684611c4c565b9250611cd460208501611c4c565b9150604084013590509250925092565b600060208284031215611cf657600080fd5b5035919050565b60008060408385031215611d1057600080fd5b82359150611d2060208401611c4c565b90509250929050565b60008060408385031215611d3c57600080fd5b611d4583611c4c565b9150611d2060208401611c4c565b600181811c90821680611d6757607f821691505b602082108103611d8757634e487b7160e01b600052602260045260246000fd5b50919050565b6020808252600990820152683737ba1037bbb732b960b91b604082015260600190565b600060208284031215611dc257600080fd5b5051919050565b634e487b7160e01b600052601160045260246000fd5b818103818111156104fa576104fa611dc9565b60208082526010908201526f18dbdb9d1c9858dd08195e1c1a5c995960821b604082015260600190565b600060208284031215611e2e57600080fd5b815160ff81168114611a4b57600080fd5b808201808211156104fa576104fa611dc9565b600060208284031215611e6457600080fd5b81518015158114611a4b57600080fd5b7f416363657373436f6e74726f6c3a206163636f756e7420000000000000000000815260008351611eac816017850160208801611bf5565b7001034b99036b4b9b9b4b733903937b6329607d1b6017918401918201528351611edd816028840160208801611bf5565b01602801949350505050565b80820281158282048414176104fa576104fa611dc9565b634e487b7160e01b600052604160045260246000fd5b634e487b7160e01b600052603260045260246000fd5b600081611f3b57611f3b611dc9565b506000190190565b60008251611f55818460208701611bf5565b919091019291505056fe3c4a2d89ed8b4cf4347fec87df1c38410f8fc538bf9fd64c10f2717bc0feff36a2646970667358221220517289ee18f33d70148108793948d3b568b92674f9ac80ddad55a86695b5dcc264736f6c63430008130033b05c6909cf2a1e2d3bcdbd95f74e25619a115fb2b476743ef40361d34a1b244c",
    "sourcePath": "c:/Users/Chia/Documents/ReactDev/React Express/Tokenising/server/app/contracts/ERC20TokenPBM.sol",
    "compiler": {
        "name": "solc",
        "version": "0.8.19+commit.7dd6d404"
    },
    "functionHashes": {
        "DEFAULT_ADMIN_ROLE()": "a217fddf",
        "MERCHANT_ADMIN_ROLE()": "f7749e3c",
        "MERCHANT_ROLE()": "b3d35839",
        "allowance(address,address)": "dd62ed3e",
        "approve(address,uint256)": "095ea7b3",
        "balanceOf(address)": "70a08231",
        "contractExpiry()": "89aba642",
        "decimals()": "313ce567",
        "decreaseAllowance(address,uint256)": "a457c2d7",
        "extendExpiry(uint256)": "50d264ca",
        "getRoleAdmin(bytes32)": "248a9ca3",
        "grantMerchantRole(address)": "46886289",
        "grantRole(bytes32,address)": "2f2ff15d",
        "hasRole(bytes32,address)": "91d14854",
        "increaseAllowance(address,uint256)": "39509351",
        "name()": "06fdde03",
        "owner()": "8da5cb5b",
        "pause()": "8456cb59",
        "paused()": "5c975abb",
        "recover(address)": "0cd865ec",
        "redeem(address,uint256)": "1e9a6950",
        "renounceRole(bytes32,address)": "36568abe",
        "revokeMerchantRole(address)": "c6eb7a09",
        "revokeRole(bytes32,address)": "d547741f",
        "supportsInterface(bytes4)": "01ffc9a7",
        "symbol()": "95d89b41",
        "totalSupply()": "18160ddd",
        "transfer(address,uint256)": "a9059cbb",
        "transferFrom(address,address,uint256)": "23b872dd",
        "underlyingToken()": "2495a599",
        "unpause()": "3f4ba83a",
        "withdraw()": "3ccfd60b",
        "wrapMint(address,uint256)": "39722f6c"
    },
    "gasEstimates": {
        "creation": {
            "codeDepositCost": "1623400",
            "executionCost": "infinite",
            "totalCost": "infinite"
        },
        "external": {
            "DEFAULT_ADMIN_ROLE()": "262",
            "MERCHANT_ADMIN_ROLE()": "327",
            "MERCHANT_ROLE()": "infinite",
            "allowance(address,address)": "infinite",
            "approve(address,uint256)": "24693",
            "balanceOf(address)": "2652",
            "contractExpiry()": "2362",
            "decimals()": "infinite",
            "decreaseAllowance(address,uint256)": "27040",
            "extendExpiry(uint256)": "infinite",
            "getRoleAdmin(bytes32)": "2556",
            "grantMerchantRole(address)": "infinite",
            "grantRole(bytes32,address)": "infinite",
            "hasRole(bytes32,address)": "2765",
            "increaseAllowance(address,uint256)": "27029",
            "name()": "infinite",
            "owner()": "infinite",
            "pause()": "infinite",
            "paused()": "2383",
            "recover(address)": "infinite",
            "redeem(address,uint256)": "infinite",
            "renounceRole(bytes32,address)": "572",
            "revokeMerchantRole(address)": "infinite",
            "revokeRole(bytes32,address)": "infinite",
            "supportsInterface(bytes4)": "473",
            "symbol()": "infinite",
            "totalSupply()": "2338",
            "transfer(address,uint256)": "infinite",
            "transferFrom(address,address,uint256)": "infinite",
            "underlyingToken()": "infinite",
            "unpause()": "infinite",
            "withdraw()": "infinite",
            "wrapMint(address,uint256)": "infinite"
        },
        "internal": {
            "_beforeTokenTransfer(address,address,uint256)": "infinite"
        }
    }
}